:03096C00DFFE2289
:10091700C292C293AF0912092AD290D291C292C24F
:0309270093AF0982
:10092A00AE07AF061EEF600C7FF512096C7FF51259
:05093A00096C80EE22B3
:100800007D007C02D2AFD2A8D288C290C291C2929F
:10081000C293750901E4F50A20B0107F0A12092A73
:1008200020B008C290C291C292C29320B11A7F0A2E
:1008300012092A20B112E4FCFD0DEDAE0470010C8A
:10084000144E6004050980F120B3107F0A12092AB2
:1008500020B308C3EC940040021509ED1DAE0470EE
:10086000011C4E604A30B047D290C291120917C2A3
:1008700090120922C290D291D292120926C290C23D
:1008800091D292120926C290C291D292D293AF090C
:1008900012092AC290C291C292D293AF0912092AB8
:1008A000D290C291C292D293AF0912092A80ACC2EF
:1008B00090C291C292C2937C027D00ED1DAE047085
:1008C000011C4E700302080A30B00302080AD290DD
:1008D000C291120924D290C291C292D293AF09124E
:1008E000092AC290C291C292D293AF0912092AC2B8
:1008F00090C291D292D293AF0912092AC290C291AA
:10090000D292120926C290D291D292120926C29096
:07091000D29112091780A427
:0300030002093FB0
:10093F00C0E0C0D075D000C006C00720B20A7F0A41
:10094F0012092A20B202B2B0D007D006D0D0D0E020
:01095F003265
:0300000002096092
:0C096000787FE4F6D8FD75810A020800DB
:00000001FF
